:100000000C942A000C9434000C9434000C943400AA
:100010000C9434000C9434000C9434000C94340090
:100020000C9434000C9434000C9434000C94340080
:100030000C9434000C9434000C9434000C94340070
:100040000C9434000C9434000C9434000C94340060
:100050000C94340011241FBECFE5D8E0DEBFCDBF25
:100060000E9482030C9499050C940000672B09F000
:100070009FC0009711F4D89808958130910511F42C
:10008000D99808958230910511F4DA980895833053
:10009000910511F4DB9808958430910511F4DC98F2
:1000A00008958530910511F4DD9808958630910505
:1000B00011F4DE9808958730910511F4DF980895C2
:1000C0008A30910511F4C09808958B30910511F490
:1000D000C19808958C30910511F4C29808958D301F
:1000E000910511F4C39808958E30910511F4C498C8
:1000F00008958F30910511F4C598089580319105C8
:1001000011F4C69808958131910511F4C7980895A6
:100110008431910511F4A89808958531910511F461
:10012000A99808958631910511F4AA980895873108
:10013000910511F4AB9808958831910511F4AC98AC
:1001400008958931910511F4AD9808958A3191058A
:1001500011F4AE9808958B31910511F4AF9808957C
:100160008E31910511F4909808958F31910511F415
:10017000919808958032910511F4929808958132F2
:10018000910511F4939808958232910511F4949891
:1001900008958332910511F495980895843291055C
:1001A00011F496980895859709F09FC0979808953F
:1001B000009711F4D89A08958130910511F4D99AD5
:1001C00008958230910511F4DA9A089583309105EB
:1001D00011F4DB9A08958430910511F4DC9A0895A6
:1001E0008530910511F4DD9A08958630910511F45A
:1001F000DE9A08958730910511F4DF9A08958A30C8
:10020000910511F4C09A08958B30910511F4C19AAB
:1002100008958C30910511F4C29A08958D3091059E
:1002200011F4C39A08958E30910511F4C49A08957B
:100230008F30910511F4C59A08958031910511F41C
:10024000C69A08958131910511F4C79A08958431B1
:10025000910511F4A89A08958531910511F4A99A90
:1002600008958631910511F4AA9A08958731910570
:1002700011F4AB9A08958831910511F4AC9A089560
:100280008931910511F4AD9A08958A31910511F4DF
:10029000AE9A08958B31910511F4AF9A08958E317D
:1002A000910511F4909A08958F31910511F4919A66
:1002B00008958032910511F4929A08958132910542
:1002C00011F4939A08958232910511F4949A089545
:1002D0008332910511F4959A08958432910511F4B1
:1002E000969A0895859709F4979A0895CF93C82F01
:1002F00080FF03C061E070E002C060E070E08EE16A
:1003000090E00E943600C1FF03C061E070E002C0CF
:1003100060E070E08FE190E00E943600C2FF03C011
:1003200061E070E002C060E070E080E290E00E9476
:100330003600C3FF03C061E070E002C060E070E01F
:1003400081E290E00E943600C4FF03C061E070E0EB
:1003500002C060E070E082E290E00E943600C5FFDB
:1003600003C061E070E002C060E070E083E290E012
:100370000E943600C6FF03C061E070E002C060E08A
:1003800070E084E290E00E943600C7FF03C061E0A5
:1003900070E002C060E070E085E290E0CF910C94E4
:1003A0003600CF93C82F60E070E08AE190E00E94B1
:1003B00036008C2F0E94760161E070E08BE190E0C6
:1003C0000E94360089EF90E00197F1F700C000002D
:1003D00060E070E08BE190E00E94360089EF90E0F1
:1003E0000197F1F700C00000CF91089581E00C94CF
:1003F000D101813011F480E803C0823021F480EC17
:10040000860F0C94D101089560E070E08AE190E0DD
:100410000E94360060E070E08BE190E00E943600C0
:1004200087E893E10197F1F700C0000080E30E94A4
:10043000D10181EE94E00197F1F700C0000080E364
:100440000E94D10189EF90E00197F1F700C0000010
:1004500080E30E94D10183EC99E00197F1F700C09D
:10046000000088E30E94D1018CE00E94D10181E06C
:100470000E94D10186E00C94D101CF93C82F61E096
:1004800070E08AE190E00E9436008C2F0E94760195
:1004900061E070E08BE190E00E94360089EF90E02F
:1004A0000197F1F700C0000060E070E08BE190E0A0
:1004B0000E94360089EF90E00197F1F700C000003C
:1004C000CF910895CF93DF93EC018991882319F0A0
:1004D0000E943D02FACFDF91CF9108958CE10C94F8
:1004E000D10188E10C94D101CF93C82F80FF03C0C4
:1004F00061E070E002C060E070E082E290E00E94A3
:100500003600C1FF03C061E070E002C060E070E04F
:1005100083E290E00E943600C2FF03C061E070E019
:1005200002C060E070E084E290E00E943600C3FF09
:1005300003C061E070E002C060E070E085E290E03E
:10054000CF910C943600CF93C82F60E070E08AE121
:1005500090E00E9436008C2F0E94740261E070E0EF
:100560008BE190E00E94360089EF90E00197F1F76F
:1005700000C0000060E070E08BE190E00E94360077
:1005800089EF90E00197F1F700C00000CF91089546
:1005900080E00E94A30281E00C94A302CF93C62FB7
:1005A000813011F480E803C0823069F480EC8C0F54
:1005B00085958595859585950E94A3028C2F8F70D2
:1005C000CF910C94A302CF91089580E00E94740211
:1005D00087E893E10197F1F700C0000083E00E94F3
:1005E000A30281EE94E00197F1F700C0000083E0E0
:1005F0000E94A3028DEB9AE00197F1F700C0000082
:1006000083E00E94A30282E00E94A30282E00E9493
:10061000A30288E00E94A30280E00E94A3028CE073
:100620000E94A30280E00E94A30286E00C94A30231
:10063000CF93C82F61E070E08AE190E00E9436001D
:100640008C2F85958595859585950E94740261E02E
:1006500070E08BE190E00E94360089EF90E0019716
:10066000F1F700C0000060E070E08BE190E00E94D4
:10067000360089EF90E00197F1F700C000008C2F61
:100680008F700E94740261E070E08BE190E00E9444
:10069000360089EF90E00197F1F700C0000060E0BC
:1006A00070E08BE190E00E94360089EF90E00197C6
:1006B000F1F700C00000CF910895CF93DF93EC01D4
:1006C0008991882319F00E941803FACFDF91CF9106
:1006D000089581E00E94A3028CE00C94A30281E0C3
:1006E0000E94A30288E00C94A30221E73DE34AE9BB
:1006F00050E40E942C0520E030E04FE753E40E94D4
:10070000030408958FEF84BB81BB80E687B989E835
:1007100086B98FB5826F8FBD8EB589618EBD8FE131
:100720009EE497BD86BD369AC1E6D0E6369A3699E4
:10073000FECF65B170E080E090E00E94770421E791
:100740003DE34AE950E40E942C0520E030E04FE709
:1007500053E40E9403046B017C0187B1803619F0D9
:10076000813611F141C02DEC3CEC4CEC5FE3C7014C
:10077000B6010E94270587FD05C086B597B5885E3E
:1007800093400EC02DEC3CEC4CEC5FE3C701B6018E
:100790000E94FE0387FF06C086B597B5845C99402A
:1007A0009BBD8ABDC7B920C020E030E040EC5FE3CC
:1007B000C701B6010E94270587FD05C086B597B51C
:1007C000805293400EC020E030E040EC5FE3C70170
:1007D000B6010E94FE0387FF06C086B597B5845C0C
:1007E000994099BD88BDD7B92FE986E891E021509D
:1007F00080409040E1F700C0000098CF0E94B20412
:1008000008F481E008950E9417040C94ED040E94FE
:10081000E60458F00E94DF0440F029F45F3F29F01D
:100820000C94D60451110C9421050C94DC040E9404
:10083000FE0468F39923B1F3552391F3951B550BEF
:10084000BB27AA2762177307840738F09F5F5F4FA3
:10085000220F331F441FAA1FA9F335D00E2E3AF0E2
:10086000E0E832D091505040E695001CCAF72BD0FA
:10087000FE2F29D0660F771F881FBB1F261737074B
:100880004807AB07B0E809F0BB0B802DBF01FF277D
:1008900093585F4F3AF09E3F510578F00C94D60480
:1008A0000C9421055F3FE4F3983ED4F38695779549
:1008B0006795B795F7959F5FC9F7880F911D969536
:1008C000879597F90895E1E0660F771F881FBB1F92
:1008D000621773078407BA0720F0621B730B840B3F
:1008E000BA0BEE1F88F7E0950895E89409C097FBCE
:1008F0003EF490958095709561957F4F8F4F9F4FF7
:100900009923A9F0F92F96E9BB279395F69587953A
:1009100077956795B795F111F8CFFAF4BB0F11F4FD
:1009200060FF1BC06F5F7F4F8F4F9F4F16C08823A4
:1009300011F096E911C0772321F09EE8872F762FDA
:1009400005C0662371F096E8862F70E060E02AF01B
:100950009A95660F771F881FDAF7880F9695879507
:1009600097F90895990F0008550FAA0BE0E8FEEFDC
:1009700016161706E807F907C0F012161306E40763
:10098000F50798F0621B730B840B950B39F40A265C
:1009900061F0232B242B252B21F408950A2609F43A
:1009A000A140A6958FEF811D811D089597F99F673E
:1009B00080E870E060E008959FEF80EC08950024E7
:1009C0000A941616170618060906089500240A94B4
:1009D00012161306140605060895092E0394000C3A
:1009E00011F4882352F0BB0F40F4BF2B11F460FFC9
:1009F00004C06F5F7F4F8F4F9F4F089557FD9058F2
:100A0000440F551F59F05F3F71F04795880F97FBD2
:100A1000991F61F09F3F79F087950895121613068C
:100A20001406551FF2CF4695F1DF08C016161706BB
:100A30001806991FF1CF86957105610508940895F0
:100A4000E894BB2766277727CB0197F908950E9482
:100A5000B20408F48FEF08950E943F050C94ED0452
:100A60000E94DF0438F00E94E60420F0952311F084
:100A70000C94D6040C94DC0411240C9421050E94DF
:100A8000FE0470F3959FC1F3950F50E0551F629FD0
:100A9000F001729FBB27F00DB11D639FAA27F00DD7
:100AA000B11DAA1F649F6627B00DA11D661F829FFE
:100AB0002227B00DA11D621F739FB00DA11D621FE3
:100AC000839FA00D611D221F749F3327A00D611D00
:100AD000231F849F600D211D822F762F6A2F1124E2
:100AE0009F5750409AF0F1F088234AF0EE0FFF1F15
:100AF000BB1F661F771F881F91505040A9F79E3F6C
:100B0000510580F00C94D6040C9421055F3FE4F36A
:100B1000983ED4F3869577956795B795F795E795C1
:100B20009F5FC1F7FE2B880F911D9695879597F9CA
:060B30000895F894FFCFC8
:00000001FF
