:100000000C946B000C9480000C9480000C94800085
:100010000C9480000C9480000C9480000C94800060
:100020000C9480000C9480000C9480000C94800050
:100030000C9480000C9480000C9480000C94800040
:100040000C9480000C9480000C9480000C94800030
:100050000C94800007634236B79BD8A71A396856BC
:1000600018AEBAAB558C1D3CB7CC5763BD6DEDFDDA
:10007000753EF6177231BF000000803F0800000097
:10008000BE922449123EABAAAA2ABECDCCCC4C3E8D
:1000900000000080BEABAAAAAA3E00000000BF007C
:1000A0000000803F0000000000084178D3BB438778
:1000B000D1133D190E3CC3BD4282AD2B3E68EC828C
:1000C00076BED98FE1A93E4C80EFFFBE01C4FF7F11
:1000D0003F000000000011241FBECFE5D8E0DEBFC6
:1000E000CDBF10E0A0E6B0E0EAEAF5E102C005907D
:1000F0000D92AA36B107D9F70E9466050C94D30A6F
:100100000C940000672B09F09FC0009711F4D89859
:1001100008958130910511F4D998089582309105A0
:1001200011F4DA9808958330910511F4DB9808955D
:100130008430910511F4DC9808958530910511F40F
:10014000DD9808958630910511F4DE980895873082
:10015000910511F4DF9808958A30910511F4C09843
:1001600008958B30910511F4C19808958C30910554
:1001700011F4C29808958D30910511F4C398089533
:100180008E30910511F4C49808958F30910511F4C3
:10019000C59808958031910511F4C698089581316C
:1001A000910511F4C79808958431910511F4A89828
:1001B00008958531910511F4A99808958631910526
:1001C00011F4AA9808958731910511F4AB98089518
:1001D0008831910511F4AC9808958931910511F495
:1001E000AD9808958A31910511F4AE9808958B3138
:1001F000910511F4AF9808958E31910511F49098FE
:1002000008958F31910511F49198089580329105E8
:1002100011F4929808958132910511F493980895FC
:100220008232910511F4949808958332910511F466
:10023000959808958432910511F4969808958597BC
:1002400009F09FC097980895009711F4D89A0895DF
:100250008130910511F4D99A08958230910511F4F5
:10026000DA9A08958330910511F4DB9A0895843069
:10027000910511F4DC9A08958530910511F4DD9A09
:1002800008958630910511F4DE9A0895873091051E
:1002900011F4DF9A08958A30910511F4C09A0895F7
:1002A0008B30910511F4C19A08958C30910511F4A9
:1002B000C29A08958D30910511F4C39A08958E3035
:1002C000910511F4C49A08958F30910511F4C59ADF
:1002D00008958031910511F4C69A089581319105F0
:1002E00011F4C79A08958431910511F4A89A0895DC
:1002F0008531910511F4A99A08958631910511F47B
:10030000AA9A08958731910511F4AB9A089588311E
:10031000910511F4AC9A08958931910511F4AD9AC3
:1003200008958A31910511F4AE9A08958B319105A3
:1003300011F4AF9A08958E31910511F4909A0895B1
:100340008F31910511F4919A08958032910511F43D
:10035000929A08958132910511F4939A0895823208
:10036000910511F4949A08958332910511F4959AA8
:1003700008958432910511F4969A0895859709F4A9
:10038000979A0895CF93C82F80FF03C061E070E073
:1003900002C060E070E08EE190E00E948200C1FF48
:1003A00003C061E070E002C060E070E08FE190E0C7
:1003B0000E948200C2FF03C061E070E002C060E002
:1003C00070E080E290E00E948200C3FF03C061E021
:1003D00070E002C060E070E081E290E00E94820084
:1003E000C4FF03C061E070E002C060E070E082E240
:1003F00090E00E948200C5FF03C061E070E002C08F
:1004000060E070E083E290E00E948200C6FF03C0DB
:1004100061E070E002C060E070E084E290E00E9481
:100420008200C7FF03C061E070E002C060E070E0DE
:1004300085E290E0CF910C948200CF93C82F60E0CA
:1004400070E08AE190E00E9482008C2F0E94C2013D
:1004500061E070E08BE190E00E94820089EF90E023
:100460000197F1F700C0000060E070E08BE190E0E0
:100470000E94820089EF90E00197F1F700C0000030
:10048000CF91089581E00C941D02813011F480E831
:1004900003C0823021F480EC860F0C941D02089575
:1004A00060E070E08AE190E00E94820060E070E02D
:1004B0008BE190E00E94820087E893E10197F1F7D9
:1004C00000C0000080E30E941D0281EE94E00197CD
:1004D000F1F700C0000080E30E941D0289EF90E068
:1004E0000197F1F700C0000080E30E941D0283EC39
:1004F00099E00197F1F700C0000088E30E941D0217
:100500008CE00E941D0281E00E941D0286E00C9496
:100510001D02CF93C82F61E070E08AE190E00E9455
:1005200082008C2F0E94C20161E070E08BE190E0BC
:100530000E94820089EF90E00197F1F700C000006F
:1005400060E070E08BE190E00E94820089EF90E033
:100550000197F1F700C00000CF910895CF93DF938A
:10056000EC018991882319F00E948902FACFDF916A
:10057000CF9108958CE10C941D0288E10C941D022A
:10058000CF93C82F80FF03C061E070E002C060E03D
:1005900070E082E290E00E948200C1FF03C061E04F
:1005A00070E002C060E070E083E290E00E948200B0
:1005B000C2FF03C061E070E002C060E070E084E26E
:1005C00090E00E948200C3FF03C061E070E002C0BF
:1005D00060E070E085E290E0CF910C948200CF93D0
:1005E000C82F60E070E08AE190E00E9482008C2FCA
:1005F0000E94C00261E070E08BE190E00E94820006
:1006000089EF90E00197F1F700C0000060E070E032
:100610008BE190E00E94820089EF90E00197F1F772
:1006200000C00000CF91089580E00E94EF0281E0B9
:100630000C94EF02CF93C62F813011F480E803C0F1
:10064000823069F480EC8C0F85958595859585952C
:100650000E94EF028C2F8F70CF910C94EF02CF91FC
:10066000089580E00E94C00287E893E10197F1F7C6
:1006700000C0000083E00E94EF0281EE94E0019749
:10068000F1F700C0000083E00E94EF028DEB9AE0DA
:100690000197F1F700C0000083E00E94EF0282E0C2
:1006A0000E94EF0282E00E94EF0288E00E94EF02C7
:1006B00080E00E94EF028CE00E94EF0280E00E9446
:1006C000EF0286E00C94EF02CF93C82F61E070E058
:1006D0008AE190E00E9482008C2F85958595859512
:1006E00085950E94C00261E070E08BE190E00E947D
:1006F000820089EF90E00197F1F700C0000060E010
:1007000070E08BE190E00E94820089EF90E0019719
:10071000F1F700C000008C2F8F700E94C00261E0D2
:1007200070E08BE190E00E94820089EF90E00197F9
:10073000F1F700C0000060E070E08BE190E00E9403
:10074000820089EF90E00197F1F700C00000CF919F
:100750000895CF93DF93EC018991882319F00E94CB
:100760006403FACFDF91CF91089581E00E94EF02F8
:100770008CE00C94EF0281E00E94EF0288E00C9480
:10078000EF0280E280B911B8089594EA96BF06B6E8
:1007900007FEFDCF81B1887F883021F081B1887F4D
:1007A0008031A1F7089584E986BF089583B984E86C
:1007B00086BF06B607FEFDCF089520E48202C00181
:1007C0001124846886BF06B607FEFDCF83B1089565
:1007D0001F93CF93DF931F92CDB7DEB7182F698396
:1007E0000E94C50386EA0E94D603812F0E94D60389
:1007F0006981862F0E94D60384E986BF0F90DF911E
:10080000CF911F9108950E94C10368E08DE20C947E
:10081000E803CF92DF92EF92FF920F931F93CF9353
:10082000DF93EC010E94C50386EA0E94D60382E3AF
:100830000E94D6030E94C50387EA0E94D60381E086
:100840000E94DD03E82E81E00E94DD03C82E81E0D6
:100850000E94DD03082F81E00E94DD03D82E81E095
:100860000E94DD03182F80E00E94DD03F82E84E94A
:1008700086BF6C2DCC0C770B762F66272E2DEE0CB9
:10088000330B622B732B072E000C880B990B0E94E5
:10089000F1072DEC3CEC4CE151E40E94A10820E072
:1008A00030E04DE853E40E944707688379838A83E8
:1008B0009B836D2DDD0C770B762F6627202F000F85
:1008C000330B622B732B072E000C880B990B0E94A5
:1008D000F1072DEC3CEC4CE151E40E94A10820E032
:1008E00030E04DE853E40E9447076C837D838E839C
:1008F0009F836F2DFF0C770B762F6627212F110F0B
:10090000330B622B732B072E000C880B990B0E9464
:10091000F1072DEC3CEC4CE151E40E94A10820E0F1
:1009200030E04DE853E40E944707688779878A875B
:100930009B87DF91CF911F910F91FF90EF90DF90F8
:10094000CF9008959B0121503109FC01E60FF71F5C
:10095000DC01AD01481B590B421753073CF44C9185
:1009600052915D93408321503109F3CF0895EF9266
:10097000FF920F931F93CF93DF938B019A01FB019B
:100980004AE0E42EF12CEF01C01BD10B009739F0A7
:10099000B7010E94AD06805D8193CB01F4CFF801D1
:1009A000EC0FFD1F80E3C217D3071CF4219681933F
:1009B000FACFBE01C8010E94A204F801EC0FFD1F8E
:1009C0001082CE01DF91CF911F910F91FF90EF9098
:1009D00008952F923F924F925F926F927F928F92E3
:1009E0009F92AF92BF92CF92DF92EF92FF920F93BE
:1009F0001F93CF93DF934B015C01EA0189010E94B1
:100A0000B9076B017C0140E050E0BE01C6010E94C5
:100A1000B7041C010115110509F445C0FE01E80FDA
:100A2000F91F8EE28083B801012E000C880B990B10
:100A30000E94F1079B01AC0160E070E080E291E46C
:100A40000E940E092B013C01B601DD0C880B990BAD
:100A50000E94F1079B01AC01C501B4010E94D506BB
:100A60002FEF221A320AC20DD31DA30192010E9458
:100A7000A1080E94B907DC01CB01A801BE01DF91EA
:100A8000CF911F910F91FF90EF90DF90CF90BF908B
:100A9000AF909F908F907F906F905F904F903F901E
:100AA0002F900C94B704DF91CF911F910F91FF907D
:100AB000EF90DF90CF90BF90AF909F908F907F90FE
:100AC0006F905F904F903F902F900895CF93DF935A
:100AD000CDB7DEB7EF970FB6F894DEBF0FBECDBF30
:100AE0008FEF81BB84BB0E9450020E9442020E9491
:100AF00003044E018EE2880E911C8CE0F4011192E9
:100B00008A95E9F78BE2282E9DE2392E7E01FFE1DE
:100B1000EF0EF11C24E6A22EB12C6E0180E1C80E6E
:100B2000D11C8E010F5F1F4F0E944202C4010E9420
:100B300009041FAE1EAE4EA45FA468A879A820E0E9
:100B400030E0A901C301B2010E94420787FF0AC039
:100B500077FA709477F870944EA65FA668AA79AA7F
:100B60003EAE01C02EAE80E80E941D0280E690E0FD
:100B70000E94AE02CE01CE960E94AE02F7018FE037
:100B800011928A95E9F76EA57FA588A999A90E9477
:100B9000B907DC01CB014AE050E0B7010E94930A9B
:100BA000C7010E94AE028EE20E94890220E030E07E
:100BB00048EC52E46EA57FA588A999A90E94A108D6
:100BC0006EA77FA788AB99AB0E94B907CB01B5018F
:100BD0000E94AD064AE050E0B7010E94930AC701A7
:100BE0000E94AE021DAE1CAE4AA85BA86CA87DA8F0
:100BF00020E030E0A901C301B2010E94420787FF53
:100C00000AC077FA709477F870944AAA5BAA6CAA23
:100C10007DAA3CAE01C02CAE89E80E941D0283E68D
:100C200090E00E94AE02CE01CC960E94AE02F60188
:100C30008FE011928A95E9F76AA97BA98CA99DA9F1
:100C40000E94B907DC01CB014AE050E0B6010E94E6
:100C5000930AC6010E94AE028EE20E94890220E041
:100C600030E048EC52E46AA97BA98CA99DA90E94B6
:100C7000A1086AAB7BAB8CAB9DAB0E94B907CB01E3
:100C8000B5010E94AD064AE050E0B6010E94930A09
:100C9000C6010E94AE021BAE1AAE4EA85FA868AC99
:100CA00079AC20E030E0A901C301B2010E94420703
:100CB00087FF0AC077FA709477F870944EAA5FAAFB
:100CC00068AE79AE3AAE01C02AAE84EC0E941D0235
:100CD00086E690E00E94AE02CE01CA960E94AE0265
:100CE000F8018FE011928A95E9F76EA97FA988AD86
:100CF00099AD0E94B907DC01CB014AE050E0B80190
:100D00000E94930AC8010E94AE028EE20E948902EC
:100D100020E030E048EC52E46EA97FA988AD99AD9F
:100D20000E94A1086EAB7FAB88AF99AF0E94B90754
:100D3000CB01B5010E94AD064AE050E0B8010E9427
:100D4000930AC8010E94AE02EFE4F3EC3197F1F789
:100D500000C000000E944202E7CE97FB072E16F467
:100D6000009407D077FD09D00E94C10607FC05D08A
:100D70003EF4909581959F4F0895709561957F4FB2
:100D80000895AA1BBB1B51E107C0AA1FBB1FA617D2
:100D9000B70710F0A61BB70B881F991F5A95A9F724
:100DA00080959095BC01CD0108955058BB27AA2786
:100DB0000E94ED060C9467080E94590838F00E94C2
:100DC000600820F039F49F3F19F426F40C9456087B
:100DD0000EF4E095E7FB0C945008E92F0E94780888
:100DE00058F3BA17620773078407950720F079F460
:100DF000A6F50C949A080EF4E0950B2EBA2FA02DB0
:100E00000B01B90190010C01CA01A0011124FF27B7
:100E1000591B99F0593F50F4503E68F11A16F040B2
:100E2000A22F232F342F4427585FF3CF46953795B1
:100E30002795A795F0405395C9F77EF41F16BA0B76
:100E4000620B730B840BBAF09150A1F0FF0FBB1F24
:100E5000661F771F881FC2F70EC0BA0F621F731F6D
:100E6000841F48F4879577956795B795F7959E3FCA
:100E700008F0B0CF9395880F08F09927EE0F97955B
:100E8000879508950E942C0808F481E008950E9437
:100E90005B070C9467080E94600858F00E9459088C
:100EA00040F029F45F3F29F00C94500851110C9444
:100EB0009B080C9456080E94780868F39923B1F3B4
:100EC000552391F3951B550BBB27AA276217730770
:100ED000840738F09F5F5F4F220F331F441FAA1F04
:100EE000A9F335D00E2E3AF0E0E832D091505040C0
:100EF000E695001CCAF72BD0FE2F29D0660F771F6E
:100F0000881FBB1F261737074807AB07B0E809F053
:100F1000BB0B802DBF01FF2793585F4F3AF09E3FD8
:100F2000510578F00C9450080C949B085F3FE4F353
:100F3000983ED4F3869577956795B795F7959F5F1B
:100F4000C9F7880F911D9695879597F90895E1E067
:100F5000660F771F881FBB1F621773078407BA07C6
:100F600020F0621B730B840BBA0BEE1F88F7E09521
:100F700008950E94C0076894B1110C949B080895CD
:100F80000E94800888F09F5798F0B92F9927B75191
:100F9000B0F0E1F0660F771F881F991F1AF0BA951D
:100FA000C9F714C0B13091F00E949A08B1E00895D9
:100FB0000C949A08672F782F8827B85F39F0B93FCB
:100FC000CCF3869577956795B395D9F73EF49095D0
:100FD0008095709561957F4F8F4F9F4F0895E8944E
:100FE00009C097FB3EF490958095709561957F4F71
:100FF0008F4F9F4F9923A9F0F92F96E9BB2793951F
:10100000F695879577956795B795F111F8CFFAF42E
:10101000BB0F11F460FF1BC06F5F7F4F8F4F9F4F5F
:1010200016C0882311F096E911C0772321F09EE8BD
:10103000872F762F05C0662371F096E8862F70E023
:1010400060E02AF09A95660F771F881FDAF7880FFD
:101050009695879597F90895990F0008550FAA0B53
:10106000E0E8FEEF16161706E807F907C0F01216BB
:101070001306E407F50798F0621B730B840B950BBE
:1010800039F40A2661F0232B242B252B21F4089513
:101090000A2609F4A140A6958FEF811D811D0895B0
:1010A00097F99F6780E870E060E008959FEF80EC1B
:1010B000089500240A9416161706180609060895BE
:1010C00000240A9412161306140605060895092E24
:1010D0000394000C11F4882352F0BB0F40F4BF2B93
:1010E00011F460FF04C06F5F7F4F8F4F9F4F0895D3
:1010F00057FD9058440F551F59F05F3F71F04795C9
:10110000880F97FB991F61F09F3F79F087950895AD
:10111000121613061406551FF2CF4695F1DF08C0CC
:10112000161617061806991FF1CF869571056105E9
:1011300008940895E894BB2766277727CB0197F991
:1011400008950E94B4080C9467080E94590838F06A
:101150000E94600820F0952311F00C9450080C9424
:10116000560811240C949B080E94780870F3959FF0
:10117000C1F3950F50E0551F629FF001729FBB278E
:10118000F00DB11D639FAA27F00DB11DAA1F649F2A
:101190006627B00DA11D661F829F2227B00DA11DDD
:1011A000621F739FB00DA11D621F839FA00D611D63
:1011B000221F749F3327A00D611D231F849F600D84
:1011C000211D822F762F6A2F11249F5750409AF0AD
:1011D000F1F088234AF0EE0FFF1FBB1F661F771F39
:1011E000881F91505040A9F79E3F510580F00C9404
:1011F00050080C949B085F3FE4F3983ED4F3869527
:1012000077956795B795F795E7959F5FC1F7FE2BA3
:10121000880F911D9695879597F90895FA01EE0F1D
:10122000FF1F309621053105A1F16115710561F4AB
:101230008038BFE39B0749F168949038810561F0DD
:101240008038BFEF9B0741F099234AF5FF3FE10546
:101250003105210519F1E8940894E795D901AA23ED
:1012600029F4AB2FBE2FF85FD0F310C0FF5F70F4EE
:10127000A695E0F7F73950F019F0FF3A38F49F7768
:101280009F930DD00F9007FC9058089546F00C9452
:10129000560860E070E080E89FE308954FE79F778D
:1012A0005F934F933F932F930E94090A2F913F9191
:1012B0004F915F910E94A1080C94660929F416F0E1
:1012C0000C9450080C949A080C9456080E948008BC
:1012D000A8F39638A0F707F80F92E8942BE33AEAC0
:1012E00048EB5FE70E94B7080F920F920F924DB73D
:1012F0005EB70F920E94510AE4E5F0E00E9498095F
:101300004F915F91EF91FF91E595EE1FFF1F49F01F
:10131000FE57E0684427EE0F441FFA95E1F7419528
:10132000550B0E94CB090F9007FE0C94BF0908953E
:10133000DF93CF931F930F93FF92EF92DF927B0186
:101340008C01689406C0DA2EEF010E94B408FE01F9
:10135000E894A5912591359145915591A6F3EF011A
:101360000E94ED06FE019701A801DA9469F7DF906B
:10137000EF90FF900F911F91CF91DF9108959B0106
:10138000AC0160E070E080E89FE30C9447070C94A8
:1013900050080C94850A0E948008D8F39923C9F359
:1013A000940F511DA3F39150504094F059F08823AD
:1013B00032F0660F771F881F91505040C1F79E3F53
:1013C00051052CF7880F911D9695879597F90895EB
:1013D0005F3FACF0983E9CF0BB278695779567956C
:1013E000B79508F4B1609395C1F7BB0F58F711F4A6
:1013F00060FFE8CF6F5F7F4F8F4F9F4FE3CF0C941D
:101400009B0816F00C94850A0C94560868940C946A
:1014100050080E948008A8F39923C1F3AEF3DF932C
:10142000CF931F930F93FF92C92FDD2788232AF0B4
:101430002197660F771F881FDAF720E030E040E839
:101440005FEB9FE3883920F0803E38F021968F775C
:101450000E94D606ECE7F0E004C00E94D606E9EA56
:10146000F0E00E9498098B01BE01EC01FB2E6F5742
:1014700071097595771F880B990B0E94F10728E178
:1014800032E741E35FE30E94B408AF2D9801AE015B
:10149000FF900F911F91CF91DF910E94ED060C9468
:1014A0006708FA01DC01AA0FBB1F9B01AC01BF5703
:1014B00028F4222733274427507820C0B75190F4CE
:1014C000AB2F0024469537952795011CA395D2F3A1
:1014D000002071F0220F331F441FB395DAF30ED0B2
:1014E0000C94D50661307105A0E88A07B94630F43E
:1014F0009B01AC016627772788279078309621F0EA
:10150000208331834283538308959F3F31F091506C
:1015100020F4879577956795B795880F911D9695D7
:10152000879597F908954532510520F4423010F01F
:101530000C949E0AFB011082CB010895BB274A3010
:1015400031F4992322F4BDE2909581959F4F0C943C
:10155000AA0ABB27FB015527AA27880F991FAA1F94
:10156000A41710F0A41B83955051B9F7A05DAA33BE
:1015700008F0A95DA193009779F7B111B193119289
:10158000CB010C94C30ADC01FC01672F7191772316
:10159000E1F7329704C07C916D9370836291AE172E
:0A15A000BF07C8F30895F894FFCFC9
:0A15AA00783A00593A005A3A00005E
:00000001FF
