:100000000C942A000C9447000C9447000C94470071
:100010000C9447000C9447000C9447000C94470044
:100020000C9447000C9447000C9447000C94470034
:100030000C9447000C9447000C9447000C94470024
:100040000C9447000C9447000C9447000C94470014
:100050000C94470011241FBECFE5D8E0DEBFCDBF12
:1000600010E0A0E6B0E0E6EDF2E102C005900D92EE
:10007000A236B107D9F720E0A2E6B0E001C01D9298
:10008000AE37B207E1F70E9436070C9469090C9469
:10009000000011B88FEF80B9089594EA96BF06B6B4
:1000A00007FEFDCF91B1987F983071F483B984E851
:1000B00086BF06B607FEFDCF81B1887F883131F05B
:1000C000803231F083E0089580E0089581E0089562
:1000D00082E0089594EA96BF06B607FEFDCF91B17F
:1000E000987F903171F483B984E886BF06B607FE25
:1000F000FDCF81B1887F803431F0803231F083E0F0
:10010000089580E0089581E0089582E0089583B91C
:1001100084E886BF06B607FEFDCF81B1887F8832AE
:1001200021F0803321F082E0089580E0089581E09D
:10013000089584EC86BF06B607FEFDCF83B108950F
:1001400084E886BF06B607FEFDCF83B1089584E933
:1001500086BF06B604FCFDCF08958BE792E90197B0
:10016000F1F700C0000080ED0E944D0089E10E947F
:10017000870087E00E9487000E94A70080ED0E9410
:100180004D008BE60E94870081E00E9487000E945C
:10019000A70080ED0E944D008AE10E94870080E068
:1001A0000E9487000E94A70080ED0E944D008BE115
:1001B0000E94870088E10E9487000E94A70080EDCE
:1001C0000E944D008CE10E94870080E00E94870021
:1001D0000E94A70080ED0E944D008FE10E948700E1
:1001E00080E00E9487000E94A70080ED0E944D00E1
:1001F00083E20E94870080E00E9487000E94A7009F
:1002000080ED0E944D008DE10E94870080E00E94F9
:1002100087000E94A70080ED0E944D008EE10E94A1
:10022000870080E00E9487000E94A70080ED0E9466
:100230004D0080E20E94870080E00E9487000E94BB
:10024000A70080ED0E944D0082E20E94870080E0BE
:100250000E9487000E94A70080ED0E944D0081E26D
:100260000E94870080E00E9487000E94A70080ED26
:100270000E944D0084E20E94870080E00E94870077
:100280000E94A70080ED0E944D0086E20E94870038
:1002900080E00E9487000E94A70080ED0E944D0030
:1002A00085E20E94870080E00E9487000E94A700EC
:1002B00080ED0E944D0087E20E94870080E00E944E
:1002C00087000E94A70080ED0E944D0089E20E94F5
:1002D000870080E00E9487000E94A70080ED0E94B6
:1002E0004D0088E20E94870080E00E9487000E9403
:1002F000A70080ED0E944D008AE20E94870080E006
:100300000E9487000E94A70080ED0E944D008CE2B1
:100310000E94870080E00E9487000E94A70080ED75
:100320000E944D008BE20E94870080E00E948700BF
:100330000E94A70080ED0E944D008DE20E94870080
:1003400080E00E9487000E94A70080ED0E944D007F
:100350008FE20E94870080E00E9487000E94A70031
:1003600080ED0E944D008EE20E94870080E00E9496
:1003700087000E94A70080ED0E944D0080E30E944C
:10038000870080E00E9487000E94A70080ED0E9405
:100390004D0082E30E94870080E00E9487000E9457
:1003A000A70080ED0E944D0081E30E94870080E05D
:1003B0000E9487000E94A70080ED0E944D0084E308
:1003C0000E94870080E00E9487000E94A70080EDC5
:1003D0000E944D0083E30E94870080E00E94870016
:1003E0000E94A70080ED0E944D0085E30E948700D7
:1003F00080E00E9487000E94A70080ED0E944D00CF
:1004000087E30E94870080E00E9487000E94A70087
:1004100080ED0E944D0088E30E94870081E00E94E9
:1004200087000E94A70080ED0E944D0083E60E9495
:10043000870080E00E9487000E94A70080ED0E9454
:100440004D0084E60E94870080E00E9487000E94A1
:10045000A70080ED0E944D0085E60E94870080E0A5
:100460000E9487000E94A70080ED0E944D0086E652
:100470000E94870080E00E9487000E94A70080ED14
:100480000E944D0087E60E94870080E00E9487005E
:100490000E94A70080ED0E944D0088E60E94870020
:1004A00080E00E9487000E94A70080ED0E944D001E
:1004B00089E60E94870080E00E9487000E94A700D2
:1004C00080ED0E944D008AE60E94870080E00E9435
:1004D00087000E94A70080ED0E944D008CE60E94DC
:1004E000870080E00E9487000E94A70080ED0E94A4
:1004F0004D0084E70E94870080E00E9487000C94F2
:10050000A70080ED0E944D008BE30E94870081EDE3
:100510000C946A005F926F927F928F929F92AF923B
:10052000BF92CF92DF92EF92FF920F931F93CF93E0
:10053000DF934C015B01EA0139010E9481020E94B4
:100540009900582E0E949900652D550C770B762F37
:100550006627082E000C990B682B792B71956195F5
:100560007109072E000C880B990B0E940708F401F3
:1005700060837183828393830E949900982E0E94E6
:100580009900692D990C770B762F6627082E000CA1
:10059000990B682B792B719561957109072E000CC9
:1005A000880B990B0E940708F50160837183828391
:1005B00093830E949900B82E0E9499006B2DBB0C6A
:1005C000770B762F6627082E000C990B682B792B5A
:1005D000719561957109072E000C880B990B0E948B
:1005E0000708688379838A839B830E949900C82FB8
:1005F0000E9499006C2FCC0F770B762F6627082E60
:10060000000C990B682B792B072E000C880B990B8B
:100610000E940708F30160837183828393830E94A1
:100620009900C82F0E9499006C2FCC0F770B762F62
:100630006627082E000C990B682B792B7195619514
:100640007109072E000C880B990B0E940708F8010E
:1006500060837183828393830E949900C82F0E94D4
:1006600099006C2FCC0F770B762F6627082E000C85
:10067000990B682B792B719561957109072E000CE8
:10068000880B990B0E940708F701608371838283AE
:1006900093830E949900C82F0E94A0006C2FCC0F5A
:1006A000770B762F6627082E000C990B682B792B79
:1006B000719561957109072E000C880B990B0E94AA
:1006C0000708F6016083718382839383DF91CF9162
:1006D0001F910F91FF90EF90DF90CF90BF90AF9060
:1006E0009F908F907F906F905F900C94A700672BE6
:1006F00009F09FC0009711F4D898089581309105B2
:1007000011F4D99808958230910511F4DA9808957A
:100710008330910511F4DB9808958430910511F42C
:10072000DC9808958530910511F4DD9808958630A0
:10073000910511F4DE9808958730910511F4DF9842
:1007400008958A30910511F4C09808958B30910571
:1007500011F4C19808958C30910511F4C298089550
:100760008D30910511F4C39808958E30910511F4E0
:10077000C49808958F30910511F4C598089580317B
:10078000910511F4C69808958131910511F4C79827
:1007900008958431910511F4A89808958531910543
:1007A00011F4A99808958631910511F4AA98089535
:1007B0008731910511F4AB9808958831910511F4B2
:1007C000AC9808958931910511F4AD9808958A3156
:1007D000910511F4AE9808958B31910511F4AF98FD
:1007E00008958E31910511F4909808958F319105F7
:1007F00011F4919808958032910511F4929808951A
:100800008132910511F4939808958232910511F483
:10081000949808958332910511F49598089584323F
:10082000910511F496980895859709F09FC09798BF
:100830000895009711F4D89A08958130910511F424
:10084000D99A08958230910511F4DA9A0895833087
:10085000910511F4DB9A08958430910511F4DC9A26
:1008600008958530910511F4DD9A0895863091053B
:1008700011F4DE9A08958730910511F4DF9A0895F6
:100880008A30910511F4C09A08958B30910511F4C6
:10089000C19A08958C30910511F4C29A08958D3053
:1008A000910511F4C39A08958E30910511F4C49AFC
:1008B00008958F30910511F4C59A089580319105FE
:1008C00011F4C69A08958131910511F4C79A0895DB
:1008D0008431910511F4A89A08958531910511F498
:1008E000A99A08958631910511F4AA9A089587313D
:1008F000910511F4AB9A08958831910511F4AC9AE1
:1009000008958931910511F4AD9A08958A319105C0
:1009100011F4AE9A08958B31910511F4AF9A0895B0
:100920008E31910511F4909A08958F31910511F44B
:10093000919A08958032910511F4929A0895813226
:10094000910511F4939A08958232910511F4949AC5
:1009500008958332910511F4959A08958432910592
:1009600011F4969A0895859709F4979A0895CF936C
:10097000C82F80FF03C061E070E002C060E070E05B
:100980008EE190E00E947703C1FF03C061E070E058
:1009900002C060E070E08FE190E00E947703C2FF48
:1009A00003C061E070E002C060E070E080E290E0CF
:1009B0000E947703C3FF03C061E070E002C060E003
:1009C00070E081E290E00E947703C4FF03C061E021
:1009D00070E002C060E070E082E290E00E94770385
:1009E000C5FF03C061E070E002C060E070E083E238
:1009F00090E00E947703C6FF03C061E070E002C090
:100A000060E070E084E290E00E947703C7FF03C0DB
:100A100061E070E002C060E070E085E290E0CF91BC
:100A20000C947703CF93C82F60E070E08AE190E0E8
:100A30000E9477038C2F0E94B70461E070E08BE185
:100A400090E00E94770389EF90E00197F1F700C0F2
:100A5000000060E070E08BE190E00E94770389EF96
:100A600090E00197F1F700C00000CF91089581E078
:100A70000C941205813011F480E803C0823021F417
:100A800080EC860F0C941205089560E070E08AE116
:100A900090E00E94770360E070E08BE190E00E94BC
:100AA000770387E893E10197F1F700C0000080E346
:100AB0000E94120581EE94E00197F1F700C000005A
:100AC00080E30E94120589EF90E00197F1F700C0E2
:100AD000000080E30E94120583EC99E00197F1F792
:100AE00000C0000088E30E9412058CE00E941205FD
:100AF00081E00E94120586E00C941205CF93C82F66
:100B000061E070E08AE190E00E9477038C2F0E9400
:100B1000B70461E070E08BE190E00E94770389EF19
:100B200090E00197F1F700C0000060E070E08BE119
:100B300090E00E94770389EF90E00197F1F700C001
:100B40000000CF910895CF93DF93EC018991882322
:100B500019F00E947E05FACFDF91CF9108958CE1C4
:100B60000C94120588E10C941205CF93C82F80FFD6
:100B700003C061E070E002C060E070E082E290E0FB
:100B80000E947703C1FF03C061E070E002C060E033
:100B900070E083E290E00E947703C2FF03C061E04F
:100BA00070E002C060E070E084E290E00E947703B1
:100BB000C3FF03C061E070E002C060E070E085E266
:100BC00090E0CF910C947703CF93C82F60E070E052
:100BD0008AE190E00E9477038C2F0E94B50561E0C6
:100BE00070E08BE190E00E94770389EF90E001973D
:100BF000F1F700C0000060E070E08BE190E00E943F
:100C0000770389EF90E00197F1F700C00000CF91E2
:100C1000089580E00E94E40581E00C94E405CF9300
:100C2000C62F813011F480E803C0823069F480EC73
:100C30008C0F85958595859585950E94E4058C2F6B
:100C40008F70CF910C94E405CF91089580E00E94BD
:100C5000B50587E893E10197F1F700C0000083E054
:100C60000E94E40581EE94E00197F1F700C00000D6
:100C700083E00E94E4058DEB9AE00197F1F700C054
:100C8000000083E00E94E40582E00E94E40582E027
:100C90000E94E40588E00E94E40580E00E94E405EB
:100CA0008CE00E94E40580E00E94E40586E00C945C
:100CB000E405CF93C82F61E070E08AE190E00E94E4
:100CC00077038C2F85958595859585950E94B5052B
:100CD00061E070E08BE190E00E94770389EF90E0A3
:100CE0000197F1F700C0000060E070E08BE190E058
:100CF0000E94770389EF90E00197F1F700C00000B0
:100D00008C2F8F700E94B50561E070E08BE190E060
:100D10000E94770389EF90E00197F1F700C000008F
:100D200060E070E08BE190E00E94770389EF90E053
:100D30000197F1F700C00000CF910895CF93DF93A2
:100D4000EC018991882319F00E945906FACFDF91AE
:100D5000CF91089581E00E94E4058CE00C94E405B5
:100D600081E00E94E40588E00C94E4059F92AF9234
:100D7000BF92CF92DF92EF92FF920F931F93CF9388
:100D8000DF93CDB7DEB7EC970FB6F894DEBF0FBE9A
:100D9000CDBF6B017C018E010F5F1F4F8EE1F8010B
:100DA00011928A95E9F720E030E0A901C701B60168
:100DB0000E94CA0787FF06C0F7FAF094F7F8F0948C
:100DC0008DE201C08BE289838FE0982E5E01FEE206
:100DD000AF0EB11CF501292D11922A95E9F7C70133
:100DE000B6010E94CF07DC01CB014AE0B5010E94A9
:100DF0003409B501C8010E94290960E670E0C80104
:100E00000E94290920E030E048EC52E4C701B60115
:100E10000E9494080E94CF077E01EFE1EE0EF11CC4
:100E2000F70111929A94E9F7CB0164E670E00E9411
:100E3000A2074AE0B7010E943409B701C8010E9425
:100E40002909C8010E94A305EC960FB6F894DEBFED
:100E50000FBECDBFDF91CF911F910F91FF90EF900B
:100E6000DF90CF90BF90AF909F9008958FEF81BBA0
:100E700084BB8ABB81BB8FB5826C8FBD8EB5896107
:100E80008EBD8FE19EE497BD86BD80E687B989E877
:100E900086B90E9449000E94AD00C0E0D0E082E720
:100EA000C82E80E0D82E9AE7E92E90E0F92E06E6CB
:100EB00010E02AE630E042E650E06EE670E086E7B9
:100EC00090E00E948A022DEC3CEC4CE151E46091F0
:100ED0006E0070916F0080917000909171000E947F
:100EE000940820E030E040E858E30E9494082097FE
:100EF00079F420E030E040E450EC0E94CA07181674
:100F0000D4F086B597B5805293409BBD8ABD11C081
:100F100020E030E040E450E40E948F0887FD09C0E3
:100F200086B597B5805B94409BBD8ABDC0E0D0E09C
:100F300002C0C1E0D0E08FE493EC0197F1F700C06C
:100F40000000ADCF97FB072E16F4009407D077FD75
:100F500009D00E94B60707FC05D03EF49095819514
:100F60009F4F0895709561957F4F0895AA1BBB1BF5
:100F700051E107C0AA1FBB1FA617B70710F0A61B99
:100F8000B70B881F991F5A95A9F780959095BC01BA
:100F9000CD0108950E94420808F481E008950E945E
:100FA000D6076894B1110C94890808950E946E08C0
:100FB00088F09F5798F0B92F9927B751B0F0E1F01A
:100FC000660F771F881F991F1AF0BA95C9F714C0CA
:100FD000B13091F00E948808B1E008950C9488081F
:100FE000672F782F8827B85F39F0B93FCCF3869503
:100FF00077956795B395D9F73EF490958095709560
:1010000061957F4F8F4F9F4F0895E89409C097FBDC
:101010003EF490958095709561957F4F8F4F9F4FCF
:101020009923A9F0F92F96E9BB279395F695879513
:1010300077956795B795F111F8CFFAF4BB0F11F4D6
:1010400060FF1BC06F5F7F4F8F4F9F4F16C088237D
:1010500011F096E911C0772321F09EE8872F762FB3
:1010600005C0662371F096E8862F70E060E02AF0F4
:101070009A95660F771F881FDAF7880F96958795E0
:1010800097F90895990F0008550FAA0BE0E8FEEFB5
:1010900016161706E807F907C0F012161306E4073C
:1010A000F50798F0621B730B840B950B39F40A2635
:1010B00061F0232B242B252B21F408950A2609F413
:1010C000A140A6958FEF811D811D089557FD905871
:1010D000440F551F59F05F3F71F04795880F97FBFC
:1010E000991F61F09F3F79F08795089512161306B6
:1010F0001406551FF2CF4695F1DF08C016161706E5
:101100001806991FF1CF8695710561050894089519
:10111000E894BB2766277727CB0197F908950E94AB
:10112000420808F48FEF08950E94A7080C9418094C
:101130000E940A0938F00E94110920F0952311F04D
:101140000C9401090C94070911240C9489080E943D
:10115000660870F3959FC1F3950F50E0551F629F8D
:10116000F001729FBB27F00DB11D639FAA27F00D00
:10117000B11DAA1F649F6627B00DA11D661F829F27
:101180002227B00DA11D621F739FB00DA11D621F0C
:10119000839FA00D611D221F749F3327A00D611D29
:1011A000231F849F600D211D822F762F6A2F11240B
:1011B0009F5750409AF0F1F088234AF0EE0FFF1F3E
:1011C000BB1F661F771F881F91505040A9F79E3F95
:1011D000510580F00C9401090C9489085F3FE4F3F9
:1011E000983ED4F3869577956795B795F795E795EB
:1011F0009F5FC1F7FE2B880F911D9695879597F9F4
:10120000089597F99F6780E870E060E008959FEF88
:1012100080EC089500240A9416161706180609068D
:10122000089500240A94121613061406050608955C
:10123000092E0394000C11F4882352F0BB0F40F4E4
:10124000BF2B11F460FF04C06F5F7F4F8F4F9F4F24
:101250000895FB01DC010D900020E9F71197019042
:101260000D920020E1F70895BB274A3031F499230D
:1012700022F4BDE2909581959F4F0C944009BB27C5
:10128000FB015527AA27880F991FAA1FA41710F042
:10129000A41B83955051B9F7A05DAA3308F0A95D4E
:1012A000A193009779F7B111B1931192CB010C94EE
:1012B0005909DC01FC01672F71917723E1F732971F
:1012C00004C07C916D9370836291AE17BF07C8F321
:0612D0000895F894FFCF21
:0212D6002E00E8
:00000001FF
